:020000040800F2
:10000000B0080020650100086D0100086F010008BC
:1000100000000000000000000000000000000000E0
:100020000000000000000000000000007101000856
:1000300000000000000000007301000865030008D4
:1000400077010008770100087701000877010008B0
:1000500077010008770100087701000877010008A0
:100060000000000077010008770100087701000810
:100070007701000877010008000000007701000800
:100080000000000000000000000000000000000070
:1000900077010008000000007701000877010008E0
:1000A00000000000770100080000000000000000D0
:1000B000F1040008770100080000000000000000C3
:1000C00000F002F800F03EF80CA030C80838241800
:1000D0002D18A246671EAB4654465D46AC4201D180
:1000E00000F030F87E460F3E0FCCB6460126334274
:1000F00000D0FB1AA246AB46334318471008000055
:1001000030080000103A02D378C878C1FAD85207F4
:1001100001D330C830C101D504680C6070470000BD
:100120000023002400250026103A01D378C1FBD813
:10013000520700D330C100D50B6070471FB51FBDFB
:1001400010B510BD00F0DAF81146FFF7F7FF00F028
:10015000B7FA00F0F2F803B4FFF7F2FF03BC00F0C7
:10016000F9F800000748804707480047FEE7FEE728
:10017000FEE7FEE7FEE7FEE704480549054A064BB1
:100180007047000089040008C1000008B002002088
:10019000B0080020B0040020B004002000220309B1
:1001A0008B422CD3030A8B4211D300239C464EE092
:1001B00003460B433CD4002243088B4231D303094E
:1001C0008B421CD3030A8B4201D394463FE0C30900
:1001D0008B4201D3CB01C01A524183098B4201D318
:1001E0008B01C01A524143098B4201D34B01C01A03
:1001F000524103098B4201D30B01C01A5241C3087B
:100200008B4201D3CB00C01A524183088B4201D3E9
:100210008B00C01A524143088B4201D34B00C01AD5
:100220005241411A00D201465241104670475DE0EA
:10023000CA0F00D04942031000D34042534000226D
:100240009C4603098B422DD3030A8B4212D3FC2216
:10025000890112BA030A8B420CD3890192118B4295
:1002600008D3890192118B4204D389013AD09211AB
:1002700000E08909C3098B4201D3CB01C01A524166
:1002800083098B4201D38B01C01A524143098B422F
:1002900001D34B01C01A524103098B4201D30B0118
:1002A000C01A5241C3088B4201D3CB00C01A52413D
:1002B00083088B4201D38B00C01A5241D9D2430824
:1002C0008B4201D34B00C01A5241411A00D2014661
:1002D000634652415B10104601D34042002B00D5CB
:1002E0004942704763465B1000D3404201B500208D
:1002F000C046C04602BD704770477047754600F063
:1003000025F8AE46050069465346C008C00085463C
:1003100018B020B5FFF730FF60BC00274908B6468B
:100320000026C0C5C0C5C0C5C0C5C0C5C0C5C0C504
:10033000C0C5403D49008D46704710B50446C046D3
:10034000C0462046FFF707FF10BD00000048704779
:100350004C02002001491820ABBEFEE72600020037
:100360007047000002480068401C0149086070475F
:1003700000000020F8B500250024002600270020FA
:1003800000903A48C0680C2108400546002D04D072
:10039000042D11D0082D21D11CE0344840680721DC
:1003A00049030840400B00900098401C0121814007
:1003B000C8032F4908604BE02C4800681021084012
:1003C000002803D02B482A49086002E02A4828491F
:1003D00008603DE029482649086039E02348C068A4
:1003E0000F218904084004462048C068032189057C
:1003F00008400646A00C22490C5CB00D461C1B4868
:10040000C0680121090408400746002F17D117488A
:10041000006810210840002808D0164961430846AA
:100420003146FFF7BBFE1249086010E012496143F4
:1004300008463146FFF7B2FE0D49086007E00F4954
:10044000614308463146FFF7A9FE0949086000BF2D
:1004500000BF0648C068F0210840000909490D5C4A
:1004600003480068E84002490860F8BD00100240F7
:100470000800002000093D000024F40000127A006A
:1004800000090008E808000815480068FF2101314C
:100490000843134908600846C068124908401049DB
:1004A000C86008460068104908400D4908600846C1
:1004B000806840084000886008460068012189047F
:1004C0008843074908600846C068FD21090488433D
:1004D0000349C86000200861C80304498860704768
:1004E000001002400C40FF88F6FFF6FE00ED00E031
:1004F00008B50E48C06900904021009808400028C7
:1005000007D00A48006A08430849086201200849E0
:100510000870202100980840002806D00348406A4F
:100520000449087001200449087008BD00440040D7
:1005300006000020050000200400002010B500285F
:1005400019DB1A4A03231B02D21883089B00D258D6
:100550008307DC0EFF23A3409A438B071B0E8407FF
:10056000E40EA3401A43114B032424021B198408F0
:10057000A4001A5118E00E4A03071B0F083B9B0802
:100580009B00D2588307DC0EFF23A3409A438B07BE
:100590001B0E8407E40EA3401A43054B0407240FE7
:1005A000083CA408A4001A5110BD000000E100E0BE
:1005B0001CED00E010B5002010E0E0228300094CA3
:1005C000E254012106E000228300064C1B195A5414
:1005D0004A1CD1B20429F6DB421CD0B29028ECDBD5
:1005E00010BD00000C0000201448C06A012108431F
:1005F0001249C8620846406B891408430F49486392
:100600000520000700683321890288430521090776
:100610000860084600681121C9020843052109073E
:1006200008600748074908600420486008460068D9
:100630004021084303490860704700000010024051
:1006400017C20000003001401A48C06A0121084367
:100650001849C8620846806B0121490408431549BE
:100660008863052000070068102188432021084383
:100670000521090708600846006889008843490089
:1006800008430521090708600846006A012189021C
:1006900008430521090708620846406A89000843A3
:1006A00005210907486204480449C8606D200860B4
:1006B0007047000000100240050D0000004400409B
:1006C00008B500F089F8FFF78FFFFFF773FF19E017
:1006D000002414E09B200090E0B200231A460F2172
:1006E00000F0B2F800F0CCF800200090E0B2002357
:1006F0001A46194600F0A8F800F0C2F8641C902CC5
:10070000E8DB00BFE4E7000030480068012108434F
:100710002E49086000BF2D480068C007C00F0028A0
:10072000F9D02B4800680121C90208432849086014
:1007300008460068891488432549086000BF24489A
:100740004068102108400128F9D0224800680D2196
:10075000090408431F49086000BF1E4800680121C2
:10076000490408400028F8D01A48C0683F2189048D
:1007700088430121890540180D21090408431549C2
:10078000C86000BF134800680121490608400128DD
:10079000F8D010480068491008430E49086000BFAF
:1007A0000C4800680121490608400028F8D0094893
:1007B000C068032108430749C86000BF0548C068F6
:1007C0000C2108400C28F9D170470000002002409D
:1007D000007000400010024010B5FFF795FFFFF7D2
:1007E000C9FD7D21C90014480068FFF7D7FC044605
:1007F000601E1249884200D90CE0601E1049486111
:100800000321081FFFF79AFE00200D498861072089
:10081000086100BF1C20002809DB00BF00BFC20622
:10082000D20E01219140074A116000BF00BF00BFF6
:10083000FFF70AFF10BD000008000020FFFFFF00C7
:1008400000E000E000E100E0F0B5059C002904D1E3
:10085000E0258600094FBD5504E0E0250D438600E4
:10086000064FBD558500054EAD19EA708500AD19DE
:10087000AB708500AD196C70F0BD00000C0000205D
:1008800010B5002304E0002000F022F8581CC3B289
:10089000042BF8DB00230DE0002407E099000B4A4D
:1008A0008918085D00F014F8601CC4B2042CF5DB54
:1008B000581CC3B2902BEFDB002304E0FF2000F0B4
:1008C00007F8581CC3B2042BF8DB10BD0C00002045
:1008D00000BF04498968022211400229F9D1014967
:1008E000C8607047003001400000000000000000B8
:1008F00001020304060708090000000001020304C6
:10090000030406080C101820300000002C09000811
:10091000000000200C000000040100083809000855
:100920000C000020A40800002001000800000000C6
:0809300000000000000020009F
:040000050800016589
:00000001FF
